:100000000C9434000C943E000C943E000C943E0082
:100010000C943E000C943E000C943E000C943E0068
:100020000C943E000C943E000C943E000C943E0058
:100030000C943E000C943E000C943E000C943E0048
:100040000C943E000C943E000C943E000C943E0038
:100050000C943E00B601BA01BE01C201C601CA013C
:10006000CE01D201D601DA0111241FBECFE5D8E0BE
:10007000DEBFCDBF0E9440010C94E8010C9400004B
:100080004130A1F5813089F028F08230C9F0833009
:1000900011F108952BB381E090E002C0880F991F01
:1000A0006A95E2F7822B8BBB089528B381E090E03C
:1000B00002C0880F991F6A95E2F7822B88BB0895CA
:1000C00025B381E090E002C0880F991F6A95E2F79E
:1000D000822B85BB089522B381E090E002C0880F97
:1000E000991F6A95E2F7822B82BB0895411137C0B0
:1000F000813091F028F08230D9F0833029F10895D1
:100100002BB381E090E002C0880F991F6A95E2F757
:10011000809582238BBB089528B381E090E002C0D4
:10012000880F991F6A95E2F78095822388BB08950E
:1001300025B381E090E002C0880F991F6A95E2F72D
:100140008095822385BB089522B381E090E002C0B0
:10015000880F991F6A95E2F78095822382BB0895E4
:100160004130A1F5813089F028F08230C9F0833028
:1001700011F108952AB381E090E002C0880F991F21
:100180006A95E2F7822B8ABB089527B381E090E05D
:1001900002C0880F991F6A95E2F7822B87BB0895EA
:1001A00024B381E090E002C0880F991F6A95E2F7BE
:1001B000822B84BB089521B381E090E002C0880FB8
:1001C000991F6A95E2F7822B81BB0895411137C0D0
:1001D000813091F028F08230D9F0833029F10895F0
:1001E0002AB381E090E002C0880F991F6A95E2F778
:1001F000809582238ABB089527B381E090E002C0F6
:10020000880F991F6A95E2F78095822387BB08952E
:1002100024B381E090E002C0880F991F6A95E2F74D
:100220008095822384BB089521B381E090E002C0D1
:10023000880F991F6A95E2F78095822381BB089504
:10024000813041F028F0823039F0833039F0089560
:100250006BBB089568BB089565BB089562BB0895A4
:10026000813041F028F0823039F0833039F0089540
:100270006ABB089567BB089564BB089561BB089588
:1002800041E060E080E00E94B00041E061E080E099
:100290000E94B00041E062E080E00E94B0006FEF99
:1002A00082E00E9430016FEF83E00E943001C0E0E5
:1002B0004FC06C2F82E00E94AC01D0E045C06D2F92
:1002C00083E00E94AC012FEF89E698E12150804045
:1002D0009040E1F700C00000C11108C0D11106C074
:1002E00041E060E080E00E9440002DC0C13069F430
:1002F000D1110BC040E060E080E00E94400041E08E
:1003000061E080E00E9440001EC0C13069F4D3303B
:1003100059F440E061E080E00E94400041E062E08A
:1003200080E00E9440000FC0C23069F4D33059F41D
:1003300040E062E080E00E94400041E060E080E058
:100340000E944000B4CFDF5FDA3008F4B8CFCF5F4F
:10035000C33008F4AECFABCF462F50E04A30510542
:1003600068F5FA01E65DFF4F0C94E2016FE30E942D
:100370002001089566E00E94200108956BE50E9427
:10038000200108956FE40E942001089566E60E940E
:10039000200108956DE60E94200108956DE70E94F6
:1003A0002001089567E00E94200108956FE70E94F0
:1003B000200108956FE60E94200108956FE30E94D6
:1003C00020010895EE0FFF1F0590F491E02D099490
:0403D000F894FFCFCF
:00000001FF
