S01200005441534B5F534552564F2E73726563F1
S11300000C942A000C9447000C9447000C9447006D
S11300100C9447000C9447000C9485030C944700FF
S11300200C9447000C9447000C9447000C94470030
S11300300C9447000C9447000C9447000C94470020
S11300400C9447000C9447000C9447000C94470010
S11300500C94470011241FBECFE5D8E0DEBFCDBF0E
S113006010E0A0E6B0E0EEE3F8E002C005900D92E7
S1130070A836B107D9F720E0A8E6B0E001C01D9288
S1130080AA36B207E1F70E940A030C941D040C94EB
S113009000004130A1F5813089F028F08230C9F0A8
S11300A0833011F108952BB381E090E002C0880FF2
S11300B0991F6A95E2F7822B8BBB089528B381E0E0
S11300C090E002C0880F991F6A95E2F7822B88BBE3
S11300D0089525B381E090E002C0880F991F6A95C6
S11300E0E2F7822B85BB089522B381E090E002C041
S11300F0880F991F6A95E2F7822B82BB08954111FC
S113010037C0813091F028F08230D9F0833029F162
S113011008952BB381E090E002C0880F991F6A957F
S1130120E2F7809582238BBB089528B381E090E0A9
S113013002C0880F991F6A95E2F78095822388BBD5
S1130140089525B381E090E002C0880F991F6A9555
S1130150E2F78095822385BB089522B381E090E085
S113016002C0880F991F6A95E2F78095822382BBAB
S113017008954130A1F5813089F028F08230C9F02A
S1130180833011F108952AB381E090E002C0880F12
S1130190991F6A95E2F7822B8ABB089527B381E001
S11301A090E002C0880F991F6A95E2F7822B87BB03
S11301B0089524B381E090E002C0880F991F6A95E6
S11301C0E2F7822B84BB089521B381E090E002C062
S11301D0880F991F6A95E2F7822B81BB089541111C
S11301E037C0813091F028F08230D9F0833029F182
S11301F008952AB381E090E002C0880F991F6A95A0
S1130200E2F7809582238ABB089527B381E090E0CA
S113021002C0880F991F6A95E2F78095822387BBF5
S1130220089524B381E090E002C0880F991F6A9575
S1130230E2F78095822384BB089521B381E090E0A6
S113024002C0880F991F6A95E2F78095822381BBCB
S11302500895813079F028F08230A9F08330E1F0FC
S113026024C089B390E002C0959587956A95E2F71A
S11302708170089586B390E002C0959587956A953C
S1130280E2F78170089583B390E002C09595879555
S11302906A95E2F78170089580B390E002C0959565
S11302A087956A95E2F7817008950895813041F049
S11302B028F0823039F0833039F008956BBB08950B
S11302C068BB089565BB089562BB0895813041F011
S11302D028F0823039F0833039F008956ABB0895EC
S11302E067BB089564BB089561BB0895CF93C82F7D
S11302F040E060E00E94B90040E061E08C2F0E9481
S1130300B90040E062E08C2F0E94B90040E063E055
S11303108C2F0E94B90041E064E08C2F0E94B90048
S113032041E065E08C2F0E94B90041E066E08C2F2B
S11303300E94B90041E067E08C2F0E94B9006FEF82
S11303408C2F0E945601CF910895EF92FF920F9344
S11303501F93CF93DF93C82FE12CF12C90C000E6BC
S113036010E041E0F80160818C2F0E94490041E0D7
S1130370F80161818C2F0E94490041E0F8016281FB
S11303808C2F0E94490041E0F80163818C2F0E9468
S1130390490040E0F701E05AFF4F60818C2F0E9432
S11303A0490000E010E064C0F801EC59FF4F60819F
S11303B08C2F0E942901D82F882341F057C0F801BF
S11303C0EC59FF4F60818C2F0E942901F801EC59F0
S11303D0FF4F60818C2F0E942901882381F3F1E073
S11303E0EF16F104E9F024F4E114F10451F03EC0F5
S11303F0E2E0EE16F10409F1F3E0EF16F10451F135
S113040035C00115110509F441C00130110509F485
S11304103FC002301105F1F10330110539F53CC03C
S113042001151105D9F101301105D1F10230110581
S1130430C9F103301105D1F446C001151105A1F12C
S11304400130110599F10230110591F103301105C4
S113045069F430C00115110579F10130110571F10C
S11304600230110569F10330110561F10F5F1F4F6F
S1130470043011050CF498CF8FEFE81AF80AE4E081
S1130480EE16F1040CF46BCFDEEF1DC0D7E01BC0F9
S1130490D4E019C0D1E017C0D3E615C0D8E013C02A
S11304A0D5E011C0D2E00FC0D9E00DC0D6E00BC03A
S11304B0D3E009C0DDE307C0DFE205C0DAE203C030
S11304C0DDE201C0DBE28D2FDF91CF911F910F910F
S11304D0FF90EF900895CF93C82F40E060E081E053
S11304E00E94490040E061E081E00E9449006C2FD5
S11304F082E00E94560141E062E081E00E944900EE
S11305008DEE92E00197F1F700C0000040E062E058
S113051081E00E944900CF910895CF93C82F41E014
S113052060E081E00E94490040E061E081E00E94D7
S113053049006C2F82E00E94560141E062E081E0B4
S11305400E9449008DEE92E00197F1F700C000008F
S113055040E062E081E00E944900CF9108958FE07D
S113056097E20197F1F700C000008FE30E946B024D
S11305709DE09A95F1F700008CE00E946B028DE0FB
S11305808A95F1F7000081E00E946B0283EF91E00D
S11305900197F1F700C0000086E00E946B028FE033
S11305A097E20197F1F700C0000008950F931F939D
S11305B0CF93DF938C01C0E0D0E003C00E948D0292
S11305C02196F801EC0FFD1F80818111F7CFDF9197
S11305D0CF911F910F910895CF93DF93CDB7DEB7DD
S11305E02A970FB6F894DEBF0FBECDBF4AE050E0A5
S11305F0BE016F5F7F4F0E94DD03CE0101960E9412
S1130600D6022A960FB6F894DEBF0FBECDBFDF9197
S1130610CF9108956FEF82E00E94660141E060E0AF
S113062081E00E94B90041E061E081E00E94B900EC
S113063041E062E081E00E94B90080E00E9476011E
S11306400E94AF0241E065E083E00E94B9000E948D
S1130650500380E00E94A501D0E080E00E94A50143
S1130660C82F8E3FB9F08A32A9F02FEF82E597E0C8
S1130670215080409040E1F700C000008C2F90E0B2
S11306800E94EC028D2F880FD82FDD0FDD0F8D0F08
S1130690DC2FD80FCA3209F78D2F0E947403DDCFE7
S11306A08FB58F7B8FBD8FB580688FBD8FB58E7FE3
S11306B08FBD8FB582608FBD8EB580618EBD8EB5C6
S11306C088608EBD8EB58E7F8EBD8EB582608EBDE8
S11306D08EB58B7F8EBD8FE19EE497BD86BD87EE80
S11306E093E09BBD8ABD0895282F30E0A8EEB3E0C7
S11306F00E94CE0324EB30E040E050E00E94AC03C3
S113070029513C4F3BBD2ABD08951F920F920FB64D
S11307100F9211242F933F934F935F936F937F9383
S11307208F939F93AF93BF93EF93FF93E0916800F0
S1130730F09169000995FF91EF91BF91AF919F915D
S11307408F917F916F915F914F913F912F910F9076
S11307500FBE0F901F901895A1E21A2EAA1BBB1B67
S1130760FD010DC0AA1FBB1FEE1FFF1FA217B30779
S1130770E407F50720F0A21BB30BE40BF50B661F8F
S1130780771F881F991F1A9469F760957095809553
S113079090959B01AC01BD01CF010895A29FB001CA
S11307A0B39FC001A39F700D811D1124911DB29FA1
S11307B0700D811D1124911D08954532510520F4B9
S11307C0423010F00C94E803FB011082CB01089531
S11307D0BB274A3031F4992322F4BDE290958195E8
S11307E09F4F0C94F403BB27FB015527AA27880FBE
S11307F0991FAA1FA41710F0A41B83955051B9F791
S1130800A05DAA3308F0A95DA193009779F7B1110F
S1130810B1931192CB010C940D04DC01FC01672F00
S113082071917723E1F7329704C07C916D937083C3
S11108306291AE17BF07C8F30895F894FFCF86
S10B083E040506070001020392
S9030000FC
