S01000005350495F323032332E7372656302
S11300000C942A000C9434000C9434000C943400A6
S11300100C9434000C9434000C9434000C9434008C
S11300200C9434000C9434000C9434000C9434007C
S11300300C9434000C9434000C9434000C9434006C
S11300400C9434000C9434000C9434000C9434005C
S11300500C94340011241FBECFE5D8E0DEBFCDBF21
S11300600E9416010C947F010C9400004130A1F50C
S1130070813089F028F08230C9F0833011F108957D
S11300802BB381E090E002C0880F991F6A95E2F7D4
S1130090822B8BBB089528B381E090E002C0880FC7
S11300A0991F6A95E2F7822B88BB089525B381E0F6
S11300B090E002C0880F991F6A95E2F7822B85BBF6
S11300C0089522B381E090E002C0880F991F6A95D9
S11300D0E2F7822B82BB0895411137C0813091F041
S11300E028F08230D9F0833029F108952BB381E0D0
S11300F090E002C0880F991F6A95E2F780958223E9
S11301008BBB089528B381E090E002C0880F991F4B
S11301106A95E2F78095822388BB089525B381E030
S113012090E002C0880F991F6A95E2F780958223B8
S113013085BB089522B381E090E002C0880F991F27
S11301406A95E2F78095822382BB08954130A1F538
S1130150813089F028F08230C9F0833011F108959C
S11301602AB381E090E002C0880F991F6A95E2F7F4
S1130170822B8ABB089527B381E090E002C0880FE8
S1130180991F6A95E2F7822B87BB089524B381E017
S113019090E002C0880F991F6A95E2F7822B84BB16
S11301A0089521B381E090E002C0880F991F6A95F9
S11301B0E2F7822B81BB0895411137C0813091F061
S11301C028F08230D9F0833029F108952AB381E0F0
S11301D090E002C0880F991F6A95E2F78095822308
S11301E08ABB089527B381E090E002C0880F991F6D
S11301F06A95E2F78095822387BB089524B381E052
S113020090E002C0880F991F6A95E2F780958223D7
S113021084BB089521B381E090E002C0880F991F48
S11302206A95E2F78095822381BB08950E94450177
S113023040E064E081E00E9436008AE00E947A0196
S113024041E064E081E00E9436002FEF84E39CE00B
S1130250215080409040E1F700C0000040E064E09D
S113026081E00E94360084E10E947A0141E064E06A
S113027081E00E9436002FEF84E39CE0215080400F
S11302809040E1F700C00000D3CF41E065E081E099
S11302900E94A60040E066E081E00E94A60041E0E2
S11302A067E081E00E94A60041E064E081E00E94F2
S11302B0A60041E064E081E00E9436008DB18F77B2
S11302C08DB98DB180628DB98DB180618DB98DB1DB
S11302D0877F8DB98DB18B7F8DB98DB181608DB9DB
S11302E08DB18D7F8DB98EB18E7F8EB98DB18064C5
S11302F08DB908958FB9779BFECF8FB10895F89487
S1050300FFCF29
S9030000FC
