:100000000C942A000C9434000C9434000C943400AA
:100010000C9434000C9434000C9434000C94340090
:100020000C9434000C9434000C9434000C94340080
:100030000C9434000C9434000C9434000C94340070
:100040000C9434000C9434000C9434000C94340060
:100050000C94340011241FBECFE5D8E0DEBFCDBF25
:100060000E944A010C94C6010C9400004130A1F595
:10007000813089F028F08230C9F0833011F1089581
:100080002BB381E090E002C0880F991F6A95E2F7D8
:10009000822B8BBB089528B381E090E002C0880FCB
:1000A000991F6A95E2F7822B88BB089525B381E0FA
:1000B00090E002C0880F991F6A95E2F7822B85BBFA
:1000C000089522B381E090E002C0880F991F6A95DD
:1000D000E2F7822B82BB0895411137C0813091F045
:1000E00028F08230D9F0833029F108952BB381E0D4
:1000F00090E002C0880F991F6A95E2F780958223ED
:100100008BBB089528B381E090E002C0880F991F4F
:100110006A95E2F78095822388BB089525B381E034
:1001200090E002C0880F991F6A95E2F780958223BC
:1001300085BB089522B381E090E002C0880F991F2B
:100140006A95E2F78095822382BB0895813041F061
:1001500028F0823039F0833039F008956BBB089570
:1001600068BB089565BB089562BB0895813041F076
:1001700028F0823039F0833039F008956ABB089551
:1001800067BB089564BB089561BB0895CF93C82FE2
:1001900040E060E081E00E94360040E061E081E004
:1001A0000E9436006C2F82E00E94A60041E062E0CF
:1001B00081E00E9436008DEE92E00197F1F700C0D9
:1001C000000040E062E081E00E943600CF91089597
:1001D000CF93C82F41E060E081E00E94360040E00C
:1001E00061E081E00E9436006C2F82E00E94A60050
:1001F00041E062E081E00E9436008DEE92E00197DE
:10020000F1F700C0000040E062E081E00E943600AB
:10021000CF9108958FE097E20197F1F700C00000B9
:100220008FE30E94C6009DE09A95F1F700008CE0F4
:100230000E94C6008DE08A95F1F7000081E00E94DF
:10024000C60083EF91E00197F1F700C0000086E05F
:100250000E94C6008FE097E20197F1F700C000000E
:100260000895882329F0813011F4605C01C060E0BA
:1002700080E8860F0E94C600089581E00E94C600B3
:1002800083EF91E00197F1F700C0000080E80E9441
:10029000C60008956FEF82E00E94B6006FEF81E024
:1002A0000E94B6000E940A01C0E0D0E002C0C0E097
:1002B000D02F0E943D012FEF84E39CE0215080402D
:1002C0009040E1F700C000006C2F8D2F0E9431019B
:1002D00088E40E94E8002FEF84E39CE021508040F6
:1002E0009040E1F700C0000081E0D11180E0082FCC
:1002F00061E06C0F0E94310181E60E94E8002FEF5F
:1003000084E39CE0215080409040E1F700C0000071
:1003100011E0D11101C010E062E06C0F812F0E944A
:10032000310189E60E94E8002FEF84E39CE0215030
:1003300080409040E1F700C0000063E06C0F802F28
:100340000E94310184E60E94E8002FEF84E39CE0E4
:10035000215080409040E1F700C0000064E06C0F45
:10036000812F0E94310189E70E94E8002FEF84E38A
:100370009CE0215080409040E1F700C00000CB5F3E
:100380000E943D01CF3009F093CF91CFF894FFCF79
:00000001FF
