:100000000C942A000C943C000C943C000C943C0092
:100010000C943C000C943C000C943C000C943C0070
:100020000C943C000C943C000C943C000C943C0060
:100030000C943C000C9458010C943C000C943C0033
:100040000C943C000C943C000C943C000C943C0040
:100050000C943C0011241FBECFE5D8E0DEBFCDBF1D
:1000600020E0A0E6B0E001C01D92A436B207E1F79F
:100070000E941E010C9494010C9400004130A1F5E3
:10008000813089F028F08230C9F0833011F1089571
:100090002BB381E090E002C0880F991F6A95E2F7C8
:1000A000822B8BBB089528B381E090E002C0880FBB
:1000B000991F6A95E2F7822B88BB089525B381E0EA
:1000C00090E002C0880F991F6A95E2F7822B85BBEA
:1000D000089522B381E090E002C0880F991F6A95CD
:1000E000E2F7822B82BB0895411137C0813091F035
:1000F00028F08230D9F0833029F108952BB381E0C4
:1001000090E002C0880F991F6A95E2F780958223DC
:100110008BBB089528B381E090E002C0880F991F3F
:100120006A95E2F78095822388BB089525B381E024
:1001300090E002C0880F991F6A95E2F780958223AC
:1001400085BB089522B381E090E002C0880F991F1B
:100150006A95E2F78095822382BB08954130A1F52C
:10016000813089F028F08230C9F0833011F1089590
:100170002AB381E090E002C0880F991F6A95E2F7E8
:10018000822B8ABB089527B381E090E002C0880FDC
:10019000991F6A95E2F7822B87BB089524B381E00B
:1001A00090E002C0880F991F6A95E2F7822B84BB0A
:1001B000089521B381E090E002C0880F991F6A95ED
:1001C000E2F7822B81BB0895411137C0813091F055
:1001D00028F08230D9F0833029F108952AB381E0E4
:1001E00090E002C0880F991F6A95E2F780958223FC
:1001F0008ABB089527B381E090E002C0880F991F61
:100200006A95E2F78095822387BB089524B381E045
:1002100090E002C0880F991F6A95E2F780958223CB
:1002200084BB089521B381E090E002C0880F991F3C
:100230006A95E2F78095822381BB089541E060E0F2
:1002400080E00E94AE0040E060E083E00E94AE00EB
:1002500041E061E083E00E94AE000E9445010E94FF
:100260005401C82F0E948B01C13419F0C23439F0F7
:10027000F6CF41E060E080E00E943E00F0CF40E039
:1002800060E080E00E943E00EACF8AB18B7F8AB9AD
:1002900086E080BD10BC83E389B98AB180618AB9E8
:1002A0008AB188608AB908955F9BFECF8CB10895AA
:1002B0001F920F920FB60F9211242F933F934F93DB
:1002C0005F936F937F938F939F93AF93BF93EF93BE
:1002D000FF938091600090916100892B59F0E0912B
:1002E0006200F09163008CB18083E0916000F09136
:1002F00061000995FF91EF91BF91AF919F918F910F
:100300007F916F915F914F913F912F910F900FBE11
:100310000F901F9018955D9BFECF8CB95E9BFECF12
:0C0320008BB180648BB90895F894FFCF76
:00000001FF
