S010000044435F4D4F544F522E737265639D
S11300000C942A000C9434000C9434000C943400A6
S11300100C9434000C9434000C9434000C9434008C
S11300200C9434000C9434000C9434000C9434007C
S11300300C9434000C9434000C9434000C9434006C
S11300400C9434000C9434000C9434000C9434005C
S11300500C94340011241FBECFE5D8E0DEBFCDBF21
S11300600E9476010C94D1010C9400004130A1F55A
S1130070813089F028F08230C9F0833011F108957D
S11300802BB381E090E002C0880F991F6A95E2F7D4
S1130090822B8BBB089528B381E090E002C0880FC7
S11300A0991F6A95E2F7822B88BB089525B381E0F6
S11300B090E002C0880F991F6A95E2F7822B85BBF6
S11300C0089522B381E090E002C0880F991F6A95D9
S11300D0E2F7822B82BB0895411137C0813091F041
S11300E028F08230D9F0833029F108952BB381E0D0
S11300F090E002C0880F991F6A95E2F780958223E9
S11301008BBB089528B381E090E002C0880F991F4B
S11301106A95E2F78095822388BB089525B381E030
S113012090E002C0880F991F6A95E2F780958223B8
S113013085BB089522B381E090E002C0880F991F27
S11301406A95E2F78095822382BB08954130A1F538
S1130150813089F028F08230C9F0833011F108959C
S11301602AB381E090E002C0880F991F6A95E2F7F4
S1130170822B8ABB089527B381E090E002C0880FE8
S1130180991F6A95E2F7822B87BB089524B381E017
S113019090E002C0880F991F6A95E2F7822B84BB16
S11301A0089521B381E090E002C0880F991F6A95F9
S11301B0E2F7822B81BB0895411137C0813091F061
S11301C028F08230D9F0833029F108952AB381E0F0
S11301D090E002C0880F991F6A95E2F78095822308
S11301E08ABB089527B381E090E002C0880F991F6D
S11301F06A95E2F78095822387BB089524B381E052
S113020090E002C0880F991F6A95E2F780958223D7
S113021084BB089521B381E090E002C0880F991F48
S11302206A95E2F78095822381BB0895813079F045
S113023028F08230A9F08330E1F024C089B390E043
S113024002C0959587956A95E2F78170089586B303
S113025090E002C0959587956A95E2F781700895BC
S113026083B390E002C0959587956A95E2F7817013
S1130270089580B390E002C0959587956A95E2F75A
S11302808170089508952FEF82E597E02150804012
S11302909040E1F700C0000041E060E083E00E948C
S11302A0360040E061E083E00E94360008952FEFBD
S11302B082E597E0215080409040E1F700C00000C3
S11302C040E060E083E00E94360041E061E083E0CA
S11302D00E943600089541E060E083E00E94360009
S11302E041E061E083E00E943600089540E060E070
S11302F082E00E94A60040E061E082E00E94A60045
S113030041E060E082E00E94360041E061E082E08A
S11303100E94360041E060E083E00E94A60041E0D4
S113032061E083E00E94A60060E082E00E94160182
S1130330811117C00E9443010BC061E082E00E945A
S11303401601811103C00E946B0102C00E94430187
S113035060E082E00E941601882379F30E946B0119
S1130360E3CF61E082E00E941601811117C00E9470
S113037057010BC060E082E00E941601811103C0A6
S11303800E946B0102C00E94570161E082E00E945A
S11303901601882379F30E946B01C6CF0E946B017A
S10903A0C3CFF894FFCF67
S9030000FC
