:100000000C942A000C9434000C9434000C943400AA
:100010000C9434000C9434000C9434000C94340090
:100020000C9434000C9434000C9434000C94340080
:100030000C9434000C9434000C9434000C94340070
:100040000C9434000C9434000C9434000C94340060
:100050000C94340011241FBECFE5D8E0DEBFCDBF25
:100060000E946E000C944B020C940000813041F011
:1000700028F0823039F0833039F008956BBB089551
:1000800068BB089565BB089562BB0895813041F057
:1000900028F0823039F0833039F008956ABB089532
:1000A00067BB089564BB089561BB0895813051F02A
:1000B00028F0823059F0833069F0089589B3FB014C
:1000C0008083089586B3FB018083089583B3FB0189
:1000D0008083089580B3FB0180830895CF93DF93DD
:1000E0001F92CDB7DEB760E080E00E9446006FEF60
:1000F00080E00E9436006FEF82E00E944600198285
:100100002FEF82E597E0215080409040E1F700C05A
:100110000000BE016F5F7F4F80E00E945600898122
:10012000813091F46FEF82E00E9436002FEF84E37C
:100130009CE0215080409040E1F700C0000060E06A
:1001400082E00E943600DCCF833009F096C061E087
:1001500082E00E9436002FE78AE196E0215080403D
:100160009040E1F700C0000060E082E00E943600AD
:1001700062E082E00E9436002FE78AE196E021509B
:1001800080409040E1F700C0000060E082E00E9403
:10019000360064E082E00E9436002FE78AE196E0B4
:1001A000215080409040E1F700C0000060E082E014
:1001B0000E94360068E082E00E9436002FE78AE164
:1001C00096E0215080409040E1F700C0000060E0E0
:1001D00082E00E94360060E182E00E9436002FE754
:1001E0008AE196E0215080409040E1F700C0000095
:1001F00060E082E00E94360060E282E00E94360009
:100200002FE78AE196E0215080409040E1F700C05E
:10021000000060E082E00E94360060E482E00E941C
:1002200036002FE78AE196E0215080409040E1F7C8
:1002300000C0000060E082E00E94360060E882E0DA
:100240000E9436002FE78AE196E0215080409040DE
:10025000E1F700C0000060E082E00E94360060E04C
:1002600082E00E9436002FE78AE196E0215080402C
:100270009040E1F700C0000043CF873009F092C002
:1002800060E882E00E9436002FE78AE196E0215084
:1002900080409040E1F700C0000060E082E00E94F2
:1002A000360060E482E00E9436002FE78AE196E0A3
:1002B000215080409040E1F700C0000060E082E003
:1002C0000E94360060E282E00E9436002FE78AE159
:1002D00096E0215080409040E1F700C0000060E0CF
:1002E00082E00E94360060E182E00E9436002FE743
:1002F0008AE196E0215080409040E1F700C0000084
:1003000060E082E00E94360068E082E00E943600F1
:100310002FE78AE196E0215080409040E1F700C04D
:10032000000060E082E00E94360064E082E00E940B
:1003300036002FE78AE196E0215080409040E1F7B7
:1003400000C0000060E082E00E94360062E082E0CF
:100350000E9436002FE78AE196E0215080409040CD
:10036000E1F700C0000060E082E00E94360061E03A
:1003700082E00E9436002FE78AE196E0215080401B
:100380009040E1F700C0000060E082E00E9436008B
:100390002FE78AE196E0215080409040E1F700C0CD
:1003A0000000AECE8F3709F0ABCE61E082E00E9454
:1003B00036002FE78AE196E0215080409040E1F737
:1003C00000C0000063E082E00E9436002FE78AE16F
:1003D00096E0215080409040E1F700C0000067E0C7
:1003E00082E00E9436002FE78AE196E021508040AB
:1003F0009040E1F700C000006FE082E00E9436000C
:100400002FE78AE196E0215080409040E1F700C05C
:1004100000006FE182E00E9436002FE78AE196E05B
:10042000215080409040E1F700C000006FE382E07F
:100430000E9436002FE78AE196E0215080409040EC
:10044000E1F700C000006FE782E00E9436002FE76E
:100450008AE196E0215080409040E1F700C0000022
:100460006FEF82E00E9436002FE78AE196E021508C
:1004700080409040E1F700C0000060E082E00E9410
:1004800036002FE78AE196E0215080409040E1F766
:0A04900000C0000035CEF894FFCF45
:00000001FF
