:100000000C942A000C9434000C9434000C943400AA
:100010000C9434000C9434000C9434000C94340090
:100020000C9434000C9434000C9434000C94340080
:100030000C9434000C9434000C9434000C94340070
:100040000C9434000C9434000C9434000C94340060
:100050000C94340011241FBECFE5D8E0DEBFCDBF25
:100060000E9416010C945D010C9400004130A1F532
:10007000813089F028F08230C9F0833011F1089581
:100080002BB381E090E002C0880F991F6A95E2F7D8
:10009000822B8BBB089528B381E090E002C0880FCB
:1000A000991F6A95E2F7822B88BB089525B381E0FA
:1000B00090E002C0880F991F6A95E2F7822B85BBFA
:1000C000089522B381E090E002C0880F991F6A95DD
:1000D000E2F7822B82BB0895411137C0813091F045
:1000E00028F08230D9F0833029F108952BB381E0D4
:1000F00090E002C0880F991F6A95E2F780958223ED
:100100008BBB089528B381E090E002C0880F991F4F
:100110006A95E2F78095822388BB089525B381E034
:1001200090E002C0880F991F6A95E2F780958223BC
:1001300085BB089522B381E090E002C0880F991F2B
:100140006A95E2F78095822382BB08954130A1F53C
:10015000813089F028F08230C9F0833011F10895A0
:100160002AB381E090E002C0880F991F6A95E2F7F8
:10017000822B8ABB089527B381E090E002C0880FEC
:10018000991F6A95E2F7822B87BB089524B381E01B
:1001900090E002C0880F991F6A95E2F7822B84BB1A
:1001A000089521B381E090E002C0880F991F6A95FD
:1001B000E2F7822B81BB0895411137C0813091F065
:1001C00028F08230D9F0833029F108952AB381E0F4
:1001D00090E002C0880F991F6A95E2F7809582230C
:1001E0008ABB089527B381E090E002C0880F991F71
:1001F0006A95E2F78095822387BB089524B381E056
:1002000090E002C0880F991F6A95E2F780958223DB
:1002100084BB089521B381E090E002C0880F991F4C
:100220006A95E2F78095822381BB08950E9431018F
:1002300041E060E080E00E94A60080E00E9458015A
:100240008A3019F0843139F0F8CF41E060E080E085
:100250000E943600F2CF40E060E080E00E9436006D
:10026000ECCF40E065E081E00E94A60041E066E05E
:1002700081E00E94A60040E067E081E00E94A600C5
:1002800040E064E081E00E94A6008DB18F778DB9D7
:100290008DB180628DB98DB18F7E8DB98DB1877F23
:1002A0008DB98DB18B7F8DB98DB180648DB9089575
:0E02B0008FB9779BFECF8FB10895F894FFCFE2
:00000001FF
